34100000      081222347623000178                    06248 000000045232 5CELER PAGAMENTOS              BANCO ITAU S/A                          21908202002594401745508106250                                                                     
34100011C9841081 222347623000178                    06248 000000045232 5CELER PAGAMENTOS                                                                                   00000                                   00000000                     
3410001300001A00000010403401 001300015295 1BOI R ES GRANITOS             366787              18082020BRL003603050000000000000000044990043885448000011     18082020000000000044990                    03364100007324764761            000        
3410001300002A00000010400401 000000004995 2BOI  CELULARES                366788              18082020BRL003603050000000000000000014342043885448000029     18082020000000000014342                    03364200006839143961            000        
3410001300003A00000010404971 001300002495 1BOI  DAS TINTAS               366789              18082020BRL003603050000000000000000146305043885448000037     18082020000000000146305                    03364300098060465561            000        
3410001300004A00000010403891 001300054995 5BOI ELTON RA                  366790              18082020BRL003603050000000000000000001512043885448000045     18082020000000000001512                    03364400095948651261            000        
3410001300005A00000010403221 001300033795 9BOI FICADORA BEATRIZ          366791              18082020BRL003603050000000000000000005343043885448000052     18082020000000000005343                    03364500007660280461            000        
3410001300006A00000010402881 001300037995 2BOI A STA RITA                366792              18082020BRL003603050000000000000000016289043885448000060     18082020000000000016289                    03364600001894930861            000        
3410001300007A00000010404161 001300004695 1BOI NIO HUMBERTO              366793              18082020BRL003603050000000000000000014244043885448000078     18082020000000000014244                    03364700069222100361            000        
3410001300008A00000010402001 001300063095 5BOI BA BURGUER A              366794              18082020BRL003603050000000000000000005300043885448000086     18082020000000000005300                    03364800001686179461            000        
3410001300009A00000010400571 001300036795 8BOI PECCIN ESTOFADOS          366795              18082020BRL003603050000000000000000137688043885448000094     18082020000000000137688                    03364900005594097161            000        
3410001300010A00000010400971 001300070495 6BOI R RODRIGUES               366796              18082020BRL003603050000000000000000034992043885448000102     18082020000000000034992                    03365000085415642161            000        
3410001300011A00000010400891 001300079395 8BOI  MADEIRAS                 366797              18082020BRL003603050000000000000000002061043885448000110     18082020000000000002061                    03365100025699255861            000        
3410001300012A00000010402391 001300049095 4BOI INO MOVEIS                366798              18082020BRL003603050000000000000000035000043885448000128     18082020000000000035000                    03365200073006505461            000        
3410001300013A00000010400571 001300081195 6BOI IO ZAMIAN                 366799              18082020BRL003603050000000000000000007849043885448000136     18082020000000000007849                    03365300057057230961            000        
3410001300014A00000010404981 001300007295 5BOI OND H LOUNGE              366800              18082020BRL003603050000000000000000004284043885448000144     18082020000000000004284                    03365400070212936161            000        
3410001300015A00000010404161 001300033195 7BOI INHO DO BEBE              366801              18082020BRL003603050000000000000000009884043885448000151     18082020000000000009884                    03365500078549701561            000        
3410001300016A00000010400031 001300055795 5BOI O HADES TATTO             366802              18082020BRL003603050000000000000000023466043885448000169     18082020000000000023466                    03365600009036116461            000        
3410001300017A00000010404901 001300002895 7BOI TO SANTOS                 366803              18082020BRL003603050000000000000000001375043885448000177     18082020000000000001375                    03365700075516578561            000        
3410001300018A00000010401581 001300045295 0BOI MARAO                     366804              18082020BRL003603050000000000000000128513043885448000185     18082020000000000128513                    03365800004519101461            000        
3410001300019A00000010401541 001300003795 0BOI  REGIONAL JULIA           366805              18082020BRL003603050000000000000000002965043885448000193     18082020000000000002965                    03365900073112534261            000        
3410001300020A00000010404361 001300004295 1BOI ADO S FRANCISCO           366806              18082020BRL003603050000000000000000002940043885448000201     18082020000000000002940                    03366000025872567161            000        
3410001300021A00000010402271 001300010595 6BOI ECAS USADAS               366807              18082020BRL003603050000000000000000036226043885448000219     18082020000000000036226                    03366100079973817161            000        
3410001300022A00000010400911 001300077595 5BOI  SRA DAS GRACAS           366808              18082020BRL003603050000000000000000031261043885448000227     18082020000000000031261                    03366200032429940361            000        
3410001300023A00000010401581 001300006695 7BOI AI                        366809              18082020BRL003603050000000000000000003181043885448000235     18082020000000000003181                    03366300051545527461            000        
3410001300024A00000010400871 000000074995 0BOI ECIDOS                    366810              18082020BRL003603050000000000000000069682043885448000243     18082020000000000069682                    03366400048520276461            000        
3410001300025A00000010403141 001300006095 2BOI ENTRO AUTOMOTIVO          366811              18082020BRL003603050000000000000000014131043885448000250     18082020000000000014131                    03366500042338824961            000        
3410001300026A00000010400811 001300134695 2BOI  MOTOS                    366812              18082020BRL003603050000000000000000004508043885448000268     18082020000000000004508                    03366600002286426461            000        
3410001300027A00000010404291 001300002395 9BOI  DUARTE PRATES            366813              18082020BRL003603050000000000000000005685043885448000276     18082020000000000005685                    03366700079960456161            000        
3410001300028A00000010400911 001300023795 5BOI OCARIA KIDELICIA          366814              18082020BRL003603050000000000000000003735043885448000284     18082020000000000003735                    03366800005822973361            000        
3410001300029A00000003303381 000013004695 6BOI INTE NILOPOLIS            366815              18082020BRL904008880000000000000000613096043885448000292     18082020000000000613096                    03366931559642000161            000        
3410001300030A00000010400571 001300013795 2BOI O SOUND CAR               366816              18082020BRL003603050000000000000000025209043885448000300     18082020000000000025209                    03367000007844383961            000        
3410001300031A00000010400031 001300069895 0BOI  DA HORA                  366817              18082020BRL003603050000000000000000054914043885448000318     18082020000000000054914                    03367100064178056361            000        
3410001300032A00000010403841 001300008295 8BOI A SUSHI DELIVERY          366818              18082020BRL003603050000000000000000006939043885448000326     18082020000000000006939                    03367200010352959961            000        
3410001300033A00000010402851 001300089495 8BOI RES DO MUNDO              366819              18082020BRL003603050000000000000000002354043885448000334     18082020000000000002354                    03367300000328704261            000        
3410001300034A00000003300511 000060000195 9BOI ACARIA FRANCO             366820              18082020BRL904008880000000000000000002001043885448000342     18082020000000000002001                    03367400071227903861            000        
3410001300035A00000010403461 001300028495 0BOI TERIA PEIXOTO PF          366821              18082020BRL003603050000000000000000002468043885448000359     18082020000000000002468                    03367500046831444361            000        
3410001300036A00000010401541 001300008095 5BOI  ESCOLA                   366822              18082020BRL003603050000000000000000075000043885448000367     18082020000000000075000                    03367600099520583461            000        
3410001300037A00000010403491 001300056295 5BOI A GARROS                  366823              18082020BRL003603050000000000000000008830043885448000375     18082020000000000008830                    03367700096639563361            000        
3410001300038A00000010401011 001300019495 7BOI ADINHO RIBEIRO            366824              18082020BRL003603050000000000000000057012043885448000383     18082020000000000057012                    03367800002914792561            000        
3410001300039A00000010401061 001300014595 9BOI RIUM TRICOT               366825              18082020BRL003603050000000000000000002430043885448000391     18082020000000000002430                    03367900079968392661            000        
3410001300040A00000010400071 001300063895 9BOI ACARIA LOPES              366826              18082020BRL003603050000000000000000021083043885448000409     18082020000000000021083                    03368000028938178561            000        
3410001300041A00000010402851 001300099395 0BOI CHE VERDINHO              366827              18082020BRL003603050000000000000000007612043885448000417     18082020000000000007612                    03368100070363522261            000        
3410001300042A00000010403281 001300043595 9BOI CICLO PAVUNA              366828              18082020BRL003603050000000000000000007100043885448000425     18082020000000000007100                    03368200000362179361            000        
3410001300043A00000010401581 001300018795 0BOI INHO DA FAMILIA           366829              18082020BRL003603050000000000000000030600043885448000433     18082020000000000030600                    03368300081917473461            000        
3410001300044A00000010400071 001300210295 5BOI ACA DO DIO                366830              18082020BRL003603050000000000000000001234043885448000441     18082020000000000001234                    03368400062461010561            000        
3410001300045A00000010401031 001300023795 4BOI ANCHONETE                 366831              18082020BRL003603050000000000000000007845043885448000458     18082020000000000007845                    03368500006572207461            000        
3410001300046A00000010400041 001300094095 3BOI INA CONSTRUCAO            366832              18082020BRL003603050000000000000000011234043885448000466     18082020000000000011234                    03368600005712269461            000        
3410001300047A00000010404451 001300009195 9BOI S SORVETE                 366833              18082020BRL003603050000000000000000005872043885448000474     18082020000000000005872                    03368700015817183761            000        
3410001300048A00000010403341 001300004995 0BOI AURANTE DO BODE           366834              18082020BRL003603050000000000000000009123043885448000482     18082020000000000009123                    03368800000738207461            000        
3410001300049A00000010403871 001300016195 6BOI BROTHERS                  366835              18082020BRL003603050000000000000000060269043885448000490     18082020000000000060269                    03368900008405593661            000        
3410001300050A00000010400571 001300012495 8BOI FADOS MATIAS              366836              18082020BRL003603050000000000000000224555043885448000508     18082020000000000224555                    03369000003400475961            000        
3410001300051A00000010404011 001300023795 4BOI A SERRALHERIA             366837              18082020BRL003603050000000000000000035000043885448000516     18082020000000000035000                    03369100011220871761            000        
3410001300052A00000010404391 001300000195 7BOI AO FREIRE                 366838              18082020BRL003603050000000000000000004917043885448000524     18082020000000000004917                    03369200078892864661            000        
3410001300053A00000010401841 001300019195 7BOI  GRIDE                    366839              18082020BRL003603050000000000000000028175043885448000532     18082020000000000028175                    03369300001748680161            000        
3410001300054A00000010402001 001300013395 4BOI LANCHES E MERC            366840              18082020BRL003603050000000000000000008458043885448000540     18082020000000000008458                    03369400079027865361            000        
3410001300055A00000010400341 001300041295 8BOI IO MOREIRA FUNCH          366841              18082020BRL003603050000000000000000003860043885448000557     18082020000000000003860                    03369500069335257661            000        
3410001300056A00000010403201 001300024595 6BOI  DE CARNES 3 MAR          366842              18082020BRL003603050000000000000000056933043885448000565     18082020000000000056933                    03369600004302717261            000        
3410001300057A00000010401041 001300046895 2BOI RIAL AUTOS                366843              18082020BRL003603050000000000000000052365043885448000573     18082020000000000052365                    03369700005039103361            000        
3410001300058A00000010400911 001300128695 4BOI ACIA PRO TRABALH          366844              18082020BRL003603050000000000000000023665043885448000581     18082020000000000023665                    03369800004413412461            000        
3410001300059A00000010403501 001300006095 8BOI IRAMA GAS 2               366845              18082020BRL003603050000000000000000033736043885448000599     18082020000000000033736                    03369900001215395561            000        
3410001300060A00000010400391 001300004695 7BOI OS EDUARDO                366846              18082020BRL003603050000000000000000007048043885448000607     18082020000000000007048                    03370000000734332961            000        
3410001300061A00000010403591 001300011695 0BOI OLO AGUA E GAS            366847              18082020BRL003603050000000000000000007758043885448000615     18082020000000000007758                    03370100043855792761            000        
3410001300062A00000010403251 001300006595 2BOI O BORGO DOS SANT          366848              18082020BRL003603050000000000000000016322043885448000623     18082020000000000016322                    03370200006250443161            000        
3410001300063A00000010403571 001300013995 1BOI O DA QUINHA               366849              18082020BRL003603050000000000000000005560043885448000631     18082020000000000005560                    03370300071995765361            000        
3410001300064A00000010403011 001300017595 4BOI ANTERNAS                  366850              18082020BRL003603050000000000000000036877043885448000649     18082020000000000036877                    03370400009874604461            000        
3410001300065A00000010401581 001300146495 2BOI EDILENE                   366851              18082020BRL003603050000000000000000001982043885448000656     18082020000000000001982                    03370500004910299461            000        
3410001300066A00000010400011 001300681895 0BOI IR CRESPO                 366852              18082020BRL003603050000000000000000178326043885448000664     18082020000000000178326                    03370600006681484161            000        
3410001300067A00000010403941 001300005095 0BOI HA KAR                    366853              18082020BRL003603050000000000000000014599043885448000672     18082020000000000014599                    03370700065449509461            000        
3410001300068A00000010402541 001300014395 1BOI INAO SELFSERVICE          366854              18082020BRL003603050000000000000000022716043885448000680     18082020000000000022716                    03371100002352143461            000        
3410001300069A00000010402271 001300089395 3BOI OM AUTOMOTIVO             366855              18082020BRL003603050000000000000000068187043885448000698     18082020000000000068187                    03371200005900235161            000        
3410001300070A00000010401541 000000113595 0BOI IN GOURMET FINO           366856              18082020BRL003603050000000000000000001308043885448000706     18082020000000000001308                    03371300004046075261            000        
3410001300071A00000010400031 001300316295 4BOI  BOX AMA                  366857              18082020BRL003603050000000000000000046599043885448000714     18082020000000000046599                    03371400002636294461            000        
3410001300072A00000003300531 000001031495 7BOI AMBUCO MOTOS 2            366858              18082020BRL904008880000000000000000061158043885448000722     18082020000000000061158                    03371500005338331461            000        
3410001300073A00000010401971 001300055495 2BOI  HOUSE                    366859              18082020BRL003603050000000000000000037300043885448000730     18082020000000000037300                    03371600005984421361            000        
3410001300074A00000010403841 001300007495 8BOI S BAR                     366860              18082020BRL003603050000000000000000029929043885448000748     18082020000000000029929                    03371700003706276961            000        
3410001300075A00000010400671 001300052695 2BOI ADO CICERO                366861              18082020BRL003603050000000000000000001225043885448000755     18082020000000000001225                    03372200004137457461            000        
3410001300076A00000010403481 001300012295 8BOI A LACERDA                 366862              18082020BRL003603050000000000000000011225043885448000763     18082020000000000011225                    03372300080704271161            000        
3410001300077A00000010404881 001300007495 7BOI ANA FERNANDES             366863              18082020BRL003603050000000000000000066180043885448000771     18082020000000000066180                    03372400006845132461            000        
3410001300078A00000010400051 001300033995 6BOI RONICA TEIXEIRA           366864              18082020BRL003603050000000000000000005827043885448000789     18082020000000000005827                    03372500009682677461            000        
3410001300079A00000010403011 002300003995 0BOI ELLY IMPORTADOS           366865              18082020BRL003603050000000000000000024651043885448000797     18082020000000000024651                    03372600008158054461            000        
3410001300080A00000010402171 001300024895 8BOI AILS VARIEDADES           366866              18082020BRL003603050000000000000000014600043885448000805     18082020000000000014600                    03372700011507491461            000        
3410001300081A00000010400761 000000003195 2BOI  DE CARNE                 366867              18082020BRL003603050000000000000000068439043885448000813     18082020000000000068439                    03372819981175000161            000        
3410001300082A00000010402851 001300099395 0BOI HE VERDINHO               366868              18082020BRL003603050000000000000000003976043885448000821     18082020000000000003976                    03372900070363522261            000        
3410001300083A00000010400051 001300022095 2BOI IPE HAIR                  366869              18082020BRL003603050000000000000000008000043885448000839     18082020000000000008000                    03373000010754152461            000        
3410001300084A00000010400071 001300206395 0BOI A GAS                     366870              18082020BRL003603050000000000000000030694043885448000847     18082020000000000030694                    03373100092736505561            000        
3410001300085A00000010400041 001300035795 4BOI AO OTICA                  366871              18082020BRL003603050000000000000000001763043885448000854     18082020000000000001763                    03373200028331532461            000        
3410001300086A00000010401051 001300015395 2BOI  FELIX                    366872              18082020BRL003603050000000000000000011472043885448000862     18082020000000000011472                    03373300072820977161            000        
3410001300087A00000010401901 001300039195 8BOI ADINHO CARMINHA           366873              18082020BRL003603050000000000000000005621043885448000870     18082020000000000005621                    03373400097999075461            000        
3410001300088A00000010401541 001300020995 2BOI OCAR                      366874              18082020BRL003603050000000000000000014555043885448000888     18082020000000000014555                    03373500005460792961            000        
3410001300089A00000010401551 001300008995 8BOI NIO SERGIO BARBO          366875              18082020BRL003603050000000000000000020045043885448000896     18082020000000000020045                    03373600062297856361            000        
3410001300090A00000010403011 001300045595 6BOI  SURF 1                   366876              18082020BRL003603050000000000000000015190043885448000904     18082020000000000015190                    03373700009999261461            000        
3410001300091A00000010401871 001300025595 9BOI  AMELIA VARELA            366877              18082020BRL003603050000000000000000008559043885448000912     18082020000000000008559                    03373800074982982961            000        
3410001300092A00000010403461 001300009095 4BOI ARIA Q SABOR              366878              18082020BRL003603050000000000000000036404043885448000920     18082020000000000036404                    03373900089074050161            000        
3410001300093A00000010401671 001300006195 6BOI O CAR                     366879              18082020BRL003603050000000000000000009741043885448000938     18082020000000000009741                    03374000036110314861            000        
3410001300094A00000010402061 001300107695 8BOI J LANCHES                 366880              18082020BRL003603050000000000000000001901043885448000946     18082020000000000001901                    03374100003734227261            000        
3410001300095A00000010401041 001300042095 5BOI CA PIZZARIA               366881              18082020BRL003603050000000000000000003608043885448000953     18082020000000000003608                    03374200024059455261            000        
3410001300096A00000010402981 001300036695 2BOI DANIEL SILVA              366882              18082020BRL003603050000000000000000001831043885448000961     18082020000000000001831                    03374300065220790261            000        
3410001300097A00000010401581 001300081795 0BOI OPOLITAN PUB              366883              18082020BRL003603050000000000000000016003043885448000979     18082020000000000016003                    03374400004806989461            000        
3410001300098A00000010403181 001300036695 2BOI EMPEROS                   366884              18082020BRL003603050000000000000000043866043885448000987     18082020000000000043866                    03374500047507144361            000        
3410001300099A00000010400111 001300169295 4BOI INA DO CLESINHO           366885              18082020BRL003603050000000000000000002433043885448000995     18082020000000000002433                    03374600005115836661            000        
3410001300100A00000010401451 000000022995 2BOI  DA DRIKA                 366886              18082020BRL003603050000000000000000006627043885448001001     18082020000000000006627                    03374700088553175261            000        
3410001300101A00000010401341 001300794595 9BOI ANE BARROS                366887              18082020BRL003603050000000000000000005341043885448001019     18082020000000000005341                    03374800091756537161            000        
3410001300102A00000010403401 001300005295 1BOI AS DO GAUCHO              366888              18082020BRL003603050000000000000000061557043885448001027     18082020000000000061557                    03374900070389854161            000        
3410001300103A00000010400111 001300031295 8BOI R JOIAS                   366889              18082020BRL003603050000000000000000029430043885448001035     18082020000000000029430                    03375000011119293661            000        
3410001300104A00000010402851 001300013995 7BOI IA MOTA MACEDO            366890              18082020BRL003603050000000000000000007640043885448001043     18082020000000000007640                    03375100068367740261            000        
3410001300105A00000010404601 001300007895 2BOI CO DO GEGE                366891              18082020BRL003603050000000000000000014079043885448001050     18082020000000000014079                    03375200036403792761            000        
3410001300106A00000010402991 001300053395 1BOI 3 C AUTOMOTIVO            366892              18082020BRL003603050000000000000000032311043885448001068     18082020000000000032311                    03375300004575043461            000        
3410001300107A00000010401681 001300034195 4BOI UR TRICOT                 366893              18082020BRL003603050000000000000000100049043885448001076     18082020000000000100049                    03375400007032207661            000        
3410001300108A00000010403461 001300019595 0BOI ORIFICO BEMVINDO          366894              18082020BRL003603050000000000000000018107043885448001084     18082020000000000018107                    03375500083024557361            000        
3410001300109A00000010401501 001300043895 8BOI 40 GRAUS                  366895              18082020BRL003603050000000000000000007366043885448001092     18082020000000000007366                    03375600078167914761            000        
3410001300110A00000003303231 000060002695 4BOI RIO DA TAPIOCA R          366896              18082020BRL904008880000000000000000001760043885448001100     18082020000000000001760                    03375700059123869261            000        
3410001300111A00000010402271 001300116695 3BOI LYNA LEITE                366897              18082020BRL003603050000000000000000005865043885448001118     18082020000000000005865                    03375800023243813361            000        
3410001300112A00000010403071 001300007195 1BOI ASTEIS                    366898              18082020BRL003603050000000000000000003519043885448001126     18082020000000000003519                    03375900007901727961            000        
3410001300113A00000010404291 000013014395 1BOI I DAS PIZZAS              366899              18082020BRL003603050000000000000000023802043885448001134     18082020000000000023802                    03376000001998766161            000        
3410001300114A00000010404821 001300007195 5BOI I FERRAZ                  366900              18082020BRL003603050000000000000000004849043885448001142     18082020000000000004849                    03376100004204829461            000        
3410001300115A00000003304421 000013001895 4BOI  DOS GESSEIROS            366901              18082020BRL904008880000000000000000246195043885448001159     18082020000000000246195                    03376234431284000161            000        
3410001300116A00000010402001 001300022495 1BOI NO JESUS                  366902              18082020BRL003603050000000000000000047054043885448001167     18082020000000000047054                    03376300008592252861            000        
3410001300117A00000010400031 001300324595 6BOI INA DA BELEZA             366903              18082020BRL003603050000000000000000012047043885448001175     18082020000000000012047                    03376400078881978461            000        
3410001300118A00000010401581 001300092595 4BOI N 03                      366904              18082020BRL003603050000000000000000048695043885448001183     18082020000000000048695                    03376500003110404461            000        
3410001300119A00000010403491 001300009895 0BOI  PECAS E BORRACH          366905              18082020BRL003603050000000000000000053892043885448001191     18082020000000000053892                    03376600009743787461            000        
3410001300120A00000010403301 001300001295 7BOI ADAO DAS CARNES           366906              18082020BRL003603050000000000000000024872043885448001209     18082020000000000024872                    03376700042280915161            000        
3410001300121A00000010404641 001300000095 5BOI US DESIGN                 366907              18082020BRL003603050000000000000000312686043885448001217     18082020000000000312686                    03376800061497509361            000        
3410001300122A00000010400631 001300004195 5BOI MPREENDIMENTOS            366908              18082020BRL003603050000000000000000041495043885448001225     18082020000000000041495                    03376900001444668561            000        
3410001300123A00000010400801 001300067295 0BOI INGTON CELL               366909              18082020BRL003603050000000000000000245512043885448001233     18082020000000000245512                    03377000009886935461            000        
3410001300124A00000010402541 001300015695 9BOI STICOS DI IGUACU          366910              18082020BRL003603050000000000000000082584043885448001241     18082020000000000082584                    03377100000594312961            000        
3410001300125A00000010400761 001300042895 4BOI ON CELL                   366911              18082020BRL003603050000000000000000003414043885448001258     18082020000000000003414                    03377200006476896461            000        
3410001300126A00000010403721 001300012295 0BOI ENDAS                     366912              18082020BRL003603050000000000000000040981043885448001266     18082020000000000040981                    03377300008167135461            000        
3410001300127A00000010402991 001300066095 1BOI ISTINHA CARNES            366913              18082020BRL003603050000000000000000248547043885448001274     18082020000000000248547                    03377400003387709461            000        
3410001300128A00000010400721 001300013195 8BOI ACA DO CHICO              366914              18082020BRL003603050000000000000000091409043885448001282     18082020000000000091409                    03377500002891628461            000        
3410001300129A00000010400381 001300002295 0BOI AURANTE ZE PEDRO          366915              18082020BRL003603050000000000000000025760043885448001290     18082020000000000025760                    03377600000656838961            000        
3410001300130A00000010400651 001300046295 3BOI INA DA FRUTA              366916              18082020BRL003603050000000000000000038171043885448001308     18082020000000000038171                    03377700006210736461            000        
3410001300131A00000010401281 000013046295 4BOI  MARIA                    366917              18082020BRL003603050000000000000000011742043885448001316     18082020000000000011742                    03377800003861762961            000        
3410001300132A00000010400911 001300018195 7BOI ULT DRA LARISA            366918              18082020BRL003603050000000000000000052490043885448001324     18082020000000000052490                    03377900009739601461            000        
3410001300133A00000010403401 001300005895 1BOI AGENS CAMARGO             366919              18082020BRL003603050000000000000000226954043885448001332     18082020000000000226954                    03378000002229910161            000        
3410001300134A00000010400571 001300012395 2BOI MBA FIT DELIVERY          366920              18082020BRL003603050000000000000000022490043885448001340     18082020000000000022490                    03378100008522890961            000        
3410001300135A00000010402991 000983981495 8BOI RMERCADO VITORIA          366921              18082020BRL003603050000000000000000023988043885448001357     18082020000000000023988                    03378200002771784461            000        
3410001300136A00000010404221 001300016195 6BOI LSON                      366922              18082020BRL003603050000000000000000013355043885448001365     18082020000000000013355                    03378300007330551161            000        
3410001300137A00000010400731 001300004095 1BOI ALIA GONCALVES D          366923              18082020BRL003603050000000000000000001627043885448001373     18082020000000000001627                    03378400037428773861            000        
3410001300138A00000010400341 001300002595 8BOI SHOP A DURAO              366924              18082020BRL003603050000000000000000108176043885448001381     18082020000000000108176                    03378500067102573861            000        
3410001300139A00000010400791 000000001295 8BOI  E CIA                    366925              18082020BRL003603050000000000000000294737043885448001399     18082020000000000294737                    03378607025285000161            000        
3410001300140A00000010400051 001300045795 9BOI NHO STYLOS                366926              18082020BRL003603050000000000000000009247043885448001407     18082020000000000009247                    03378700007493488461            000        
3410001300141A00000010400761 001300002995 4BOI FARMA                     366927              18082020BRL003603050000000000000000014510043885448001415     18082020000000000014510                    03378824758276000161            000        
3410001300142A00000010400721 001300039995 2BOI A POLIVET                 366928              18082020BRL003603050000000000000000015766043885448001423     18082020000000000015766                    03378900008795165961            000        
3410001300143A00000010400021 001300049195 2BOI  DE CARNE ARTHUR          366929              18082020BRL003603050000000000000000009737043885448001431     18082020000000000009737                    03379000080756603261            000        
3410001300144A00000010400731 013000007995 1BOI IO FREITAS                366930              18082020BRL003603050000000000000000021140043885448001449     18082020000000000021140                    03379100008040730461            000        
3410001300145A00000010403781 001300004995 8BOI RIA VARIEDADES A          366931              18082020BRL003603050000000000000000030296043885448001456     18082020000000000030296                    03379200007043980561            000        
3410001300146A00000010400351 001300023495 1BOI  MULHER                   366932              18082020BRL003603050000000000000000011950043885448001464     18082020000000000011950                    03379300027812461861            000        
3410001300147A00000010401551 001300024495 4BOI ARBE SHOOP                366933              18082020BRL003603050000000000000000009619043885448001472     18082020000000000009619                    03379400003449712361            000        
3410001300148A00000010400851 001300034895 3BOI S LIMA                    366934              18082020BRL003603050000000000000000010749043885448001480     18082020000000000010749                    03379500070306327161            000        
3410001300149A00000010402941 001300032295 1BOI ANDRE RODRIGUES           366935              18082020BRL003603050000000000000000001500043885448001498     18082020000000000001500                    03379600005788761661            000        
3410001300150A00000010402001 001300055795 9BOI O INFANTIL                366936              18082020BRL003603050000000000000000004970043885448001506     18082020000000000004970                    03379700088824446361            000        
3410001300151A00000010400401 001300031895 1BOI T DO PASTEL               366937              18082020BRL003603050000000000000000033631043885448001514     18082020000000000033631                    03379800013047733961            000        
3410001300152A00000010401931 001300000295 8BOI ICIO MECANICO             366938              18082020BRL003603050000000000000000002849043885448001522     18082020000000000002849                    03379900030344695861            000        
3410001300153A00000010400681 001300784895 9BOI CATU PNEUS                366939              18082020BRL003603050000000000000000061937043885448001530     18082020000000000061937                    03380000015237362161            000        
3410001300154A00000010403841 001300008895 2BOI ERWARE DA MI              366940              18082020BRL003603050000000000000000012747043885448001548     18082020000000000012747                    03380100007633870561            000        
3410001300155A00000010402741 001300045795 3BOI RIOS RP MADEIRAS          366941              18082020BRL003603050000000000000000005519043885448001555     18082020000000000005519                    03380200000247121261            0DV        
3410001300156A00000010400071 001300143095 3BOI NDA BOUTIQUE              366942              18082020BRL003603050000000000000000146692043885448001563     18082020000000000146692                    03380300011409810561            000        
3410001300157A00000010400571 001300057695 7BOI IR GONCALVES              366943              18082020BRL003603050000000000000000005791043885448001571     18082020000000000005791                    03380400085309605961            000        
3410001300158A00000010403471 001300009895 8BOI AX SUPLEMENTOS            366944              18082020BRL003603050000000000000000053509043885448001589     18082020000000000053509                    03380500032931343861            000        
3410001300159A00000010401611 001300074495 6BOI IA PRESENTES              366945              18082020BRL003603050000000000000000005118043885448001597     18082020000000000005118                    03380600021809086861            000        
3410001300160A00000010400361 001300107495 4BOI E DOS SANTOS              366946              18082020BRL003603050000000000000000033394043885448001605     18082020000000000033394                    03380700007888110461            000        
3410001300161A00000003301261 000060007795 7BOI CAS BAR E RESTAU          366947              18082020BRL904008880000000000000000044783043885448001613     18082020000000000044783                    03380822300967000161            000        
3410001300162A00000010402341 001300010895 9BOI A EMANUELLE    I          366948              18082020BRL003603050000000000000000091963043885448001621     18082020000000000091963                    03380900002341693461            000        
3410001300163A00000010401541 001300044995 0BOI L LANCHES                 366949              18082020BRL003603050000000000000000001744043885448001639     18082020000000000001744                    03381000001624682261            000        
3410001300164A00000010400731 001300045395 6BOI LO ATELIE                 366950              18082020BRL003603050000000000000000010791043885448001647     18082020000000000010791                    03381100046691677461            000        
3410001300165A00000010401581 001300032995 6BOI SIS FARMA                 366951              18082020BRL003603050000000000000000024700043885448001654     18082020000000000024700                    03381200068874286461            000        
3410001300166A00000010400251 001300009895 2BOI  CARLOS VIEIRA            366952              18082020BRL003603050000000000000000024169043885448001662     18082020000000000024169                    03381300025024272161            000        
3410001300167A00000010400031 001300007195 0BOI RTE OPTICA                366953              18082020BRL003603050000000000000000163412043885448001670     18082020000000000163412                    03381400079628427361            000        
3410001300168A00000003301591 000060007595 0BOI R HOME                    366954              18082020BRL904008880000000000000000095492043885448001688     18082020000000000095492                    03381500036022460861            000        
3410001300169A00000010400341 000000106095 6BOI  PAVANI                   366955              18082020BRL003603050000000000000000002922043885448001696     18082020000000000002922                    03381600029569705861            000        
3410001300170A00000010401551 001300664795 7BOI CAR L E PINTURAS          366956              18082020BRL003603050000000000000000259990043885448001704     18082020000000000259990                    03381700047619996161            000        
3410001300171A00000010402891 001300027195 0BOI KADO LANCHE               366957              18082020BRL003603050000000000000000008184043885448001712     18082020000000000008184                    03381800098118161261            000        
3410001300172A00000010404551 001300007795 0BOI SITO REBOUCAS             366958              18082020BRL003603050000000000000000063432043885448001720     18082020000000000063432                    03381900001214858361            000        
3410001300173A00000010400031 001300082095 8BOI URY  BOUTIQUE             366959              18082020BRL003603050000000000000000003280043885448001738     18082020000000000003280                    03382000007472418361            000        
3410001300174A00000010400601 001300071495 0BOI LAVA JATO                 366960              18082020BRL003603050000000000000000003032043885448001746     18082020000000000003032                    03382100070101871661            000        
3410001300175A00000010401941 001300105695 9BOI RDO LOURENCANO            366961              18082020BRL003603050000000000000000002543043885448001753     18082020000000000002543                    03382200035559033861            000        
3410001300176A00000010402181 001300078695 9BOI HION HAIR                 366962              18082020BRL003603050000000000000000040094043885448001761     18082020000000000040094                    03382300091031362561            000        
3410001300177A00000010400051 001300114195 7BOI IQUE FASHION              366963              18082020BRL003603050000000000000000085973043885448001779     18082020000000000085973                    03382400076983935461            000        
3410001300178A00000010403411 001300031995 2BOI IO LJ                     366964              18082020BRL003603050000000000000000019217043885448001787     18082020000000000019217                    03382500021354715361            000        
3410001300179A00000010400011 000300002395 0BOI E GRANDE                  366965              18082020BRL003603050000000000000000109813043885448001795     18082020000000000109813                    03382604153513000161            000        
3410001300180A00000010404161 001300025495 0BOI ENTIC                     366966              18082020BRL003603050000000000000000018331043885448001803     18082020000000000018331                    03382700006163674561            000        
3410001300181A00000010403971 001300011095 2BOI ULTORA NATURA             366967              18082020BRL003603050000000000000000012104043885448001811     18082020000000000012104                    03382800004108491961            000        
3410001300182A00000010400001 001300005795 6BOI LLE GONCALVES             366968              18082020BRL003603050000000000000000012420043885448001829     18082020000000000012420                    03382900001400960161            000        
3410001300183A00000010400661 001300062195 6BOI OS SUSHI                  366969              18082020BRL003603050000000000000000009349043885448001837     18082020000000000009349                    03383000003780017361            000        
3410001300184A00000010401081 000130105895 9BOI ACIA DROGA NOVA           366970              18082020BRL003603050000000000000000347167043885448001845     18082020000000000347167                    03383100023617101361            0DV        
3410001300185A00000010400811 001300090795 0BOI IAGO HORTIFRUTI           366971              18082020BRL003603050000000000000000028565043885448001852     18082020000000000028565                    03383200002235717361            000        
3410001300186A00000010402851 001300109595 9BOI CLEVERSON PONTES          366972              18082020BRL003603050000000000000000001008043885448001860     18082020000000000001008                    03383300000002856261            000        
3410001300187A00000010402041 001300038695 0BOI INA DO ROBERIO            366973              18082020BRL003603050000000000000000073508043885448001878     18082020000000000073508                    03383400073460648561            000        
3410001300188A00000010404481 001300004095 8BOI OS TAVARES                366974              18082020BRL003603050000000000000000001964043885448001886     18082020000000000001964                    03383500030751065861            000        
3410001300189A00000010400041 001300098895 1BOI GOS DO CEARA              366975              18082020BRL003603050000000000000000042320043885448001894     18082020000000000042320                    03383600003881176461            000        
3410001300190A00000010400341 001300226795 0BOI IZZA                      366976              18082020BRL003603050000000000000000012756043885448001902     18082020000000000012756                    03383700029372714861            000        
3410001300191A00000010404081 001300024095 3BOI O PORTO                   366977              18082020BRL003603050000000000000000001118043885448001910     18082020000000000001118                    03383800025511927861            000        
3410001300192A00000010401571 001300678895 5BOI NCIA SUPERM               366978              18082020BRL003603050000000000000000049871043885448001928     18082020000000000049871                    03383900052029425161            000        
3410001300193A00000010401621 013000003395 4BOI AIS LIMPO                 366979              18082020BRL003603050000000000000000025499043885448001936     18082020000000000025499                    03384000045680236861            000        
3410001300194A00000010400071 001300236595 4BOI DISTRIBUIDORA             366980              18082020BRL003603050000000000000000014564043885448001944     18082020000000000014564                    03384100000296113561            000        
3410001300195A00000010400741 001300002195 4BOI C LANCHES                 366981              18082020BRL003603050000000000000000004502043885448001951     18082020000000000004502                    03384200000456141361            000        
3410001300196A00000010400341 001300226095 0BOI  LOPES                    366982              18082020BRL003603050000000000000000043594043885448001969     18082020000000000043594                    03384300008159414861            000        
3410001300197A00000010404971 001300001695 1BOI NTRO DOS AMIGOS           366983              18082020BRL003603050000000000000000001469043885448001977     18082020000000000001469                    03384400005671490461            000        
3410001300198A00000010402991 001300001595 1BOI TON OFICINA               366984              18082020BRL003603050000000000000000010399043885448001985     18082020000000000010399                    03384500003576013561            000        
3410001300199A00000010402121 001300041395 9BOI HONETE DELICIAI           366985              18082020BRL003603050000000000000000002353043885448001993     18082020000000000002353                    03384600004577508461            000        
3410001300200A00000010404751 001300001295 6BOI TION GARAGE               366986              18082020BRL003603050000000000000000321866043885448002009     18082020000000000321866                    03384700011702235461            000        
3410001300201A00000010400721 001300027695 6BOI OCA DA GALEGA             366987              18082020BRL003603050000000000000000007998043885448002017     18082020000000000007998                    03384800001829444461            000        
3410001300202A00000010401581 001300050195 6BOI  DETALHE LAVA JA          366988              18082020BRL003603050000000000000000016974043885448002025     18082020000000000016974                    03384900007878153761            000        
3410001300203A00000010400761 001300055995 3BOI ULTIMARCAS                366989              18082020BRL003603050000000000000000229629043885448002033     18082020000000000229629                    03385000005025537361            000        
3410001300204A00000010401781 001300069295 6BOI ADO PASSAIA               366990              18082020BRL003603050000000000000000037634043885448002041     18082020000000000037634                    03385100011652500061            000        
3410001300205A00000010403281 001300003995 9BOI AURANTE PIZZARIA          366991              18082020BRL003603050000000000000000023876043885448002058     18082020000000000023876                    03385200099832593461            000        
3410001300206A00000010400051 001300107495 9BOI  DO BEBE                  366992              18082020BRL003603050000000000000000006674043885448002066     18082020000000000006674                    03385300003579211461            000        
3410001300207A00000010402981 001300007995 4BOI NHA HOUSE                 366993              18082020BRL003603050000000000000000001406043885448002074     18082020000000000001406                    03385400071027629261            000        
3410001300208A00000010400071 001300100395 4BOI EX                        366994              18082020BRL003603050000000000000000007471043885448002082     18082020000000000007471                    03385500095924361561            000        
3410001300209A00000010401911 001300061295 1BOI ES LANCHES                366995              18082020BRL003603050000000000000000004568043885448002090     18082020000000000004568                    03385600071380326461            000        
3410001300210A00000010403011 001300031895 6BOI  FINA NAVALHA II          366996              18082020BRL003603050000000000000000005911043885448002108     18082020000000000005911                    03385700002440255161            000        
3410001300211A00000010403011 001300032695 3BOI DO MARCELO                366997              18082020BRL003603050000000000000000038704043885448002116     18082020000000000038704                    03385800085616605461            000        
3410001300212A00000010400251 001300028695 4BOI UZA COSTUREIRA            366998              18082020BRL003603050000000000000000116041043885448002124     18082020000000000116041                    03385900019651695861            000        
3410001300213A00000010400051 001300071995 1BOI ADINHO DO JORGE           366999              18082020BRL003603050000000000000000017430043885448002132     18082020000000000017430                    03386000002765695461            000        
3410001300214A00000010403031 001300021595 4BOI  INFOR CELL               367000              18082020BRL003603050000000000000000005849043885448002140     18082020000000000005849                    03386100073525154161            000        
3410001300215A00000010404841 001300022695 2BOI R PAGUE MENOS             367001              18082020BRL003603050000000000000000164661043885448002157     18082020000000000164661                    03386200037514850861            0DV        
3410001300216A00000010400811 001300078695 2BOI A POPULAR                 367002              18082020BRL003603050000000000000000109882043885448002165     18082020000000000109882                    03386300008880739461            000        
3410001300217A00000010400681 001300791595 0BOI ADO BOI CAIPIRA           367003              18082020BRL003603050000000000000000009016043885448002173     18082020000000000009016                    03386400087485540161            000        
3410001300218A00000010401691 001300009195 3BOI DLOREN DESIGN             367004              18082020BRL003603050000000000000000028950043885448002181     18082020000000000028950                    03386500032286868861            000        
3410001300219A00000010400911 001300084295 8BOI DA AUTO CAR               367005              18082020BRL003603050000000000000000018837043885448002199     18082020000000000018837                    03386600001159167461            000        
3410001300220A00000010400641 001300010895 9BOI A DO ROSARIO MOR          367006              18082020BRL003603050000000000000000008221043885448002207     18082020000000000008221                    03386700082890927161            000        
3410001300221A00000010401581 001300026595 3BOI INHO DA DANI              367007              18082020BRL003603050000000000000000010376043885448002215     18082020000000000010376                    03386800005790253461            000        
3410001300222A00000010404551 001300006795 2BOI ENTIC                     367008              18082020BRL003603050000000000000000001964043885448002223     18082020000000000001964                    03386900005820907361            000        
3410001300223A00000010401041 001300086795 9BOI ETOQUE                    367009              18082020BRL003603050000000000000000079999043885448002231     18082020000000000079999                    03387000039214672561            000        
3410001300224A00000010404371 001300020195 0BOI  PECAS UNICAR             367010              18082020BRL003603050000000000000000014427043885448002249     18082020000000000014427                    03387100090177940361            000        
3410001300225A00000010402941 001300005195 7BOI ES ELIFER                 367011              18082020BRL003603050000000000000000034768043885448002256     18082020000000000034768                    03387233186245000161            0DV        
3410001300226A00000010403241 001300023995 0BOI  DA TORNEIRA              367012              18082020BRL003603050000000000000000150491043885448002264     18082020000000000150491                    03387300047484680861            000        
3410001300227A00000010402181 001300084995 0BOI IDA RACOES                367013              18082020BRL003603050000000000000000008062043885448002272     18082020000000000008062                    03387400001157113561            000        